:100000000C94060F0C94370F0C94370F0C94370F89
:100010000C94370F0C94370F0C94370F0C94370F48
:100020000C94370F0C94370F0C94370F0C94370F38
:100030000C94370F0C9406BE0C94370F0C94370FAA
:100040000C94370F0C94B46E0C94370F0C94370F3C
:100050000C94370F0C94370F0C94637F0C94FEB7FD
:100060000C94370F0C94D6240C94370F0C94370F44
:100070000C94370F0C94370F0C94370F0C94370FE8
:100080000C94370F0C94370F0C94370F0C94370FD8
:100090000C94370F0C94370F0C94370F0C9401B558
:1000A0000C94370F0C94370F0C94370F0C94370FB8
:1000B0000C94370F0C94370F0C94370F0C94370FA8
:1000C0000C94370F0C94370F0C94370F0C94370F98
:1000D0000C94370F0C94370F0C94370F0C94370F88
:1000E0000C94370F013301330C330C330C331733BB
:1000F000173317332C33223322332233D27FE17F5D
:10010000FD7F0C80268035804F8053805B802CB92A
:1001100031B936B940B94AB9C3B954B95CB964B94F
:100120006EB978B982B991B99BB9C3B9A5B9AFB95C
:10013000B9B9E5B9E8B9D7B9DBB9E1B91FBAECB9D2
:10014000F0B9F6B9FAB9FEB904BA08BA0CBA1FBACE
:1001500012BA16BA1ABA084AD73B3BCE016E84BC13
:10016000BFFDC12F3D6C74319ABD56833DDA3D0011
:10017000C77F11BED9E4BB4C3E916BAAAABE00005A
:1001800000803F05A84CCDB2D44EB93836A9020C38
:1001900050B9918688083CA6AAAA2ABE0000008011
:1001A0003F004D383420582059205A2045004361E3
:1001B0006E6E6F7420656E7465722073756264690B
:1001C000723A2000473238205830205930005361AD
:1001D00076696E672074696D653A20004D3234008F
:1001E0004D3233202573006175746F25692E6700C9
:1001F0006572726F722077726974696E6720746FAE
:100200002066696C65004E6F7420534420707269DB
:100210006E74696E67002F005344207072696E74AB
:10022000696E67206279746520002E0044656C65F4
:1002300074696F6E206661696C65642C2046696C18
:10024000653A200046696C652064656C6574656478
:100250003A002E006F70656E206661696C65642CD3
:100260002046696C653A200057726974696E672090
:10027000746F2066696C653A20002E006F70656EA1
:10028000206661696C65642C2046696C653A2000C3
:100290002E006F70656E206661696C65642C204667
:1002A000696C653A200046696C652073656C65630E
:1002B0007465640046696C6520436F727275707472
:1002C00065642E002053697A653A200046696C65A2
:1002D000206F70656E65643A20002E006F70656E49
:1002E000206661696C65642C2046696C653A200063
:1002F0004E6F772066726573682066696C653A2078
:10030000004E6F7720646F696E672066696C653A8E
:1003100020002220706F73002220706172656E745D
:100320003A2200535542524F5554494E45204341BD
:100330004C4C207461726765743A2200747279695A
:100340006E6720746F2063616C6C207375622D671B
:10035000636F64652066696C6573207769746820D3
:10036000746F6F206D616E79206C6576656C732E8D
:10037000204D4158206C6576656C2069733A0053B6
:10038000442063617264206F6B006F70656E526F02
:100390006F74206661696C656400766F6C756D655D
:1003A0002E696E6974206661696C6564005344202F
:1003B000696E6974206661696C006563686F3A00F4
:1003C0004572726F723A0048617264636F6465646B
:1003D0002044656661756C742053657474696E673A
:1003E00073204C6F616465640053746F72656420A0
:1003F00073657474696E677320726574726965766B
:100400006564002044002049002020204D33303115
:100410002050005049442073657474696E67733AC4
:1004200000205A0020590020204D3230362058003C
:10043000486F6D65206F666673657420286D6D2941
:100440003A00204500205A00205800204200205445
:100450000020204D323035205300416476616E63B8
:100460006564207661726961626C65733A20533D00
:100470004D696E20666565647261746520286D6DD6
:100480002F73292C20543D4D696E2074726176655E
:100490006C20666565647261746520286D6D2F73CC
:1004A000292C20423D6D696E696D756D20736567FD
:1004B0006D656E742074696D6520286D73292C201C
:1004C000583D6D6178696D756D205859206A657267
:1004D0006B20286D6D2F73292C20205A3D6D61787B
:1004E000696D756D205A206A65726B20286D6D2FBD
:1004F00073292C2020453D6D6178696D756D20450F
:10050000206A65726B20286D6D2F732900205400BE
:1005100020204D323034205300416363656C657296
:100520006174696F6E3A20533D616363656C6572F7
:100530006174696F6E2C20543D72657472616374CE
:1005400020616363656C65726174696F6E0020453C
:1005500000205A0020590020204D32303120580010
:100560004D6178696D756D20416363656C6572617D
:1005700074696F6E20286D6D2F7332293A00204503
:1005800000205A0020590020204D323033205800DE
:100590004D6178696D756D2066656564726174651D
:1005A0007320286D6D2F73293A00204500205A00D2
:1005B00020590020204D3932205800537465707343
:1005C0002070657220756E69743A005365747469A1
:1005D0006E67732053746F726564006563686F3A69
:1005E0000053544F505045442E20005072696E7491
:1005F00065722073746F7070656420647565207413
:100600006F206572726F72732E204669782074684D
:1006100065206572726F7220616E6420757365204B
:100620004D39393920746F20726573746172742E7C
:10063000202854656D7065726174757265206973E8
:100640002072657365742E2053657420697420616F
:10065000667465722072657374617274696E67295D
:10066000004B494C4C45442E20005072696E746515
:10067000722068616C7465642E206B696C6C28292B
:100680002063616C6C65642100536176696E67005C
:100690006F6B00526573656E643A20002200556EE0
:1006A0006B6E6F776E20636F6D6D616E643A2022A2
:1006B000004368616E67652066696C616D656E7484
:1006C000005A204F6666736574203A20007A5F6D89
:1006D00061783A20007A5F6D696E3A20005A204FA7
:1006E0006666736574005A204F6666736574206F82
:1006F0006B007A5F6D61783A20007A5F6D696E3ABF
:100700002000795F6D61783A2000795F6D696E3AFB
:100710002000785F6D61783A2000785F6D696E3AED
:100720002000205A3A0020593A0020436F756E7419
:1007300020583A200020453A00205A3A0020593AE1
:1007400000583A004649524D574152455F4E414D7F
:10075000453A4D61726C696E2056313B2053707280
:10076000696E7465722F6772626C206D6173687553
:100770007020666F722067656E36204649524D576D
:100780004152455F55524C3A687474703A2F2F7736
:1007900077772E77617370726F6A6563742E6974F0
:1007A0002F2050524F544F434F4C5F5645525349A0
:1007B0004F4E3A312E30204D414348494E455F540B
:1007C0005950453A506F77657257415350204558FC
:1007D0005452554445525F434F554E543A3120557B
:1007E0005549443A30303030303030302D303030B0
:1007F000302D303030302D303030302D3030303002
:1008000030303030303030300A00506F77657257FA
:10081000415350204F66662E00506F7765725741E6
:1008200053502072656164792E0042656420646FC4
:100830006E652E0020423A0020453A00543A0042AC
:1008400065642048656174696E672E00486561744F
:10085000696E6720646F6E652E0020573A00204550
:100860003A00543A0048656174696E672E2E2E0076
:100870002042403A0020403A00202F003A00205405
:1008800000202F0020423A00202F006F6B20543AA6
:10089000002569206D696E2C202569207365630031
:1008A0005061757365207072696E7400456E6420C6
:1008B00066696C65206C69737400426567696E20B7
:1008C00066696C65206C697374004E6F206D6F767D
:1008D000652E00526573756D696E67207072696E62
:1008E00074005761697420666F7220757365722E8B
:1008F0002E2E00536C6565702E2E2E002569206803
:100900006F757273202569206D696E75746573004B
:10091000446F6E65207072696E74696E67206669D7
:100920006C650053544F505045442E20005072695E
:100930006E7465722073746F707065642064756581
:1009400020746F206572726F72732E204669782052
:10095000746865206572726F7220616E64207573B1
:1009600065204D39393920746F2072657374617256
:10097000742E202854656D706572617475726520DF
:1009800069732072657365742E20536574206974D1
:100990002061667465722072657374617274696E29
:1009A0006729004E6F204C696E65204E756D62653B
:1009B00072207769746820636865636B73756D2C4A
:1009C000204C617374204C696E653A20004E6F2094
:1009D000436865636B73756D2077697468206C6913
:1009E0006E65206E756D6265722C204C617374208B
:1009F0004C696E653A2000636865636B73756D20A2
:100A00006D69736D617463682C204C617374204C44
:100A1000696E653A20004C696E65204E756D6265A1
:100A200072206973206E6F74204C617374204C695E
:100A30006E65204E756D6265722B312C204C617392
:100A400074204C696E653A20004D31313000446F9E
:100A50006E6520736176696E672066696C652E002D
:100A60006F6B004D3239002020506C616E6E6572E4
:100A700042756666657242797465733A2000204655
:100A8000726565204D656D6F72793A20004D617217
:100A9000202031203230313700436F6D70696C6532
:100AA000643A20002844656E6E6973205061746555
:100AB0006C6C61202844656E292C205741535020CE
:100AC00050524F4A45435420506F776572574153F7
:100AD000502900207C20417574686F723A20004DC7
:100AE000617220203120323031372031393A3034B0
:100AF0003A333400204C617374205570646174651E
:100B0000643A2000312E302E30002D576173707200
:100B10006F6A65637420004D61726C696E002053CA
:100B20006F66747761726520526573657400205733
:100B300061746368646F6720526573657400204256
:100B4000726F776E206F7574205265736574002024
:100B500045787465726E616C2052657365740050DF
:100B60006F7765725570007374617274002200654E
:100B70006E717565696E672022002200656E717561
:100B800065696E67202200FFFFFF0000A0400000A3
:100B9000A040000000400080844300004D4300005E
:100BA000484300000000000000000000000000803A
:100BB000844300004D430000484300000000000053
:100BC0000000000000006563686F3A004572726FB4
:100BD000723A0020636F6C64206578747275736973
:100BE0006F6E2070726576656E746564006563680B
:100BF0006F3A007C3C3E5E2B3D3F2F5B5D3B2C2AD9
:100C0000225C00656E6473746F7073206869743A57
:100C1000205A00205A3A00656E6473746F70732016
:100C20006869743A20590020593A00656E647374FB
:100C30006F7073206869743A20580020583A006534
:100C40006E6473746F7073206869743A200024F4C2
:100C5000D43050C38E20C2A24017828B7011127AFA
:100C6000910D816CD90AA861E108C75866076151E6
:100C700043061E4B5D05C145A7041A411104093DF9
:100C80009803713931034036DB0265339102D43069
:100C90005402802E1D02632CEE01752AC501B02876
:100CA000A001102781018F2564012B244B01E02234
:100CB0003401AC211F018D200D01801FFC00841E1A
:100CC000ED00971DDF00B81CD200E61BC600201BFC
:100CD000BC00641AB200B219A8000A19A0006A1870
:100CE0009900D117910040178B00B516840031167A
:100CF0007E00B31579003A157300C7146F005814BD
:100D00006A00EE1366008813630025135E00C712A5
:100D10005B006C12570015125400C1115100701184
:100D20004F0021114B00D61049008D10470046108E
:100D3000440002104200C00F4000800F3E00420FEE
:100D40003C00060F3B00CB0E3800930E37005C0EC4
:100D50003500270E3400F30D3200C10D3100900D27
:100D60003000600D2E00320D2D00050D2C00D90C29
:100D70002B00AE0C2900850C29005C0C2700350CDB
:100D800027000E0C2600E80B2400C40B2400A00B47
:100D900023007D0B23005A0B2100390B2100180B77
:100DA0002000F80A1F00D90A1E00BB0A1E009D0A77
:100DB0001D00800A1D00630A1C00470A1B002C0A44
:100DC0001B00110A1A00F7091A00DD091900C409ED
:100DD0001900AB091900920917007B091800630973
:100DE00017004C09160036091600200916000A09DA
:100DF0001500F5081500E0081400CC081400B80828
:100E00001400A4081400900813007D0812006B0859
:100E10001300580812004608120034081100230875
:100E200011001208110001081100F0071000E0077E
:100E30001000D0071000C0071000B0070F00A10776
:100E4000100091070E0083070F0074070F0065075D
:100E50000E0057070E0049070E003B070D002E0736
:100E60000E0020070D0013070D0006070D00F90600
:100E70000C00ED060D00E0060C00D4060C00C806C0
:100E80000C00BC060C00B0060C00A4060B00990672
:100E90000C008D060B0082060B0077060B006C061B
:100EA0000B0061060A0057060B004C060A004206BA
:100EB0000A0038060A002E060A0024060A001A064E
:100EC0000A001006090007060A00FD050900F405DE
:100ED0000900EB050900E2050900D9050900D00564
:100EE0000900C7050900BE050900B5050800AD05E4
:100EF0000800A50509009C050800940508008C055C
:100F00000800840508007C050800740508006C05CD
:100F10000700650508005D050700560508004E0539
:100F200007004705070040050800380507003105A0
:100F300007002A050700230507001C050600160503
:100F400007000F0507000805060002050700FB045F
:100F50000600F5040700EE040600E8040600E204BB
:100F60000700DB040600D5040600CF040600C90410
:100F70000600C3040600BD040600B7040600B10461
:100F80000500AC040600A6040600A00405009B04AE
:100F9000060095040500900406008A0405008504F7
:100FA0000500800406007A0405007504050070043D
:100FB00005006B04050066040500610405005C047F
:100FC000050057040500520405004D0405004804BF
:100FD0000500430405003E0404003A0405003504FE
:100FE0000500300404002C04050027040400230439
:100FF00005001E0404001A04040016040500110470
:1010000004000D04040009040500040404000004A5
:101010000400FC030400F8030400F4030400F003DC
:101020000400EC030400E8030400E4030400E0030C
:101030000400DC030400D8030400D4030400D0033C
:101040000400CC030400C8030300C503030024F418
:1010500004D9201BC40C5C0E9804C4095F02650708
:101060007101F405F900FB04B30048048700C103D3
:1010700069005803550003034500BE023A0084028C
:10108000310053022A002902250004022000E40155
:101090001C00C8011900AF01170098011400840159
:1010A0001300710110006101100051010E00430195
:1010B0000D0036010B002B010B0020010B00150168
:1010C00009000C01090003010800FB000800F300FF
:1010D0000800EB000700E4000600DE000600D80070
:1010E0000600D2000600CC000500C7000500C200C3
:1010F0000500BD000400B9000400B5000400B10003
:101100000400AD000400A9000400A5000300A20033
:1011100003009F0004009B0003009800030095005B
:10112000020093000300900003008D0002008B007A
:101130000300880002008600020084000300810092
:1011400002007F0002007D0002007B0002007900A7
:1011500002007700010076000200740002007200B5
:101160000100710002006F0002006D0001006C00C0
:1011700002006A00010069000200670001006600C9
:1011800001006500010064000200620001006100CE
:101190000100600001005F0002005D0001005C00D2
:1011A00001005B0001005A000100590001005800D5
:1011B00001005700010056000100550001005400D5
:1011C00001005300000053000100520001005100D3
:1011D0000100500001004F0001004E0000004E00D1
:1011E00001004D0001004C0001004B0000004B00CD
:1011F00001004A00010049000100480000004800C9
:1012000001004700010046000000460001004500C3
:1012100000004500010044000100430000004300BD
:1012200001004200000042000100410000004100B6
:101230000100400001003F0000003F0001003E00AF
:1012400000003E0001003D0000003D0001003C00A8
:1012500000003C0000003C0001003B0000003B009F
:1012600001003A0000003A00010039000000390096
:10127000010038000000380000003800010037008D
:101280000000370001003600000036000000360084
:101290000100350000003500000035000100340079
:1012A000000034000000340001003300000033006F
:1012B0000000330001003200000032000000320064
:1012C0000100310000003100000031000100300059
:1012D000000030000000300001002F0000002F004F
:1012E00000002F0000002F0001002E0000002E0043
:1012F00000002E0001002D0000002D0000002D0038
:1013000000002D0001002C0000002C0000002C002B
:1013100000002C0001002B0000002B0000002B001F
:1013200000002B0001002A0000002A0000002A0013
:1013300000002A0001002900000029000000290007
:1013400000002900000029000100280000002800FA
:1013500000002800000028000000280001002700ED
:1013600000002700000027000000270000002700E1
:1013700001002600000026000000260000002600D4
:1013800000002600010025000000250000002500C7
:1013900000002500000025000000250001002400B9
:1013A00000002400000024000000240000002400AD
:1013B00001002300000023000000230000002300A0
:1013C0000000230000002300000023000100220091
:1013D0000000220000002200000022000000220085
:1013E0000000220001002100000021000000210077
:1013F0000000210000002100000021000000210069
:10140000010020000000200000002000000020005B
:10141000000020000000200000002000000020004C
:1014200001001F0000001F0000001F0000001F003F
:1014300000001F0000001F0000001F0001001E0030
:1014400000001E0000001E0000001E00000065637A
:10145000686F3A004572723A204D494E54454D50DE
:10146000003A2045787472756465722073776974E8
:1014700063686564206F66662E204D494E54454D65
:101480005020747269676765726564202100457237
:10149000723A204D415854454D50003A20457874D9
:1014A0007275646572207377697463686564206F10
:1014B00066662E204D415854454D50207472696720
:1014C0006765726564202100202D20496E76616C6D
:1014D0006964206578747275646572206E756D62DA
:1014E0006572202100504944204175746F74756EF7
:1014F000652066696E697368656421205075742083
:10150000746865206C617374204B702C204B6920CB
:10151000616E64204B6420636F6E7374616E7473CC
:101520002066726F6D2061626F766520696E746FE0
:1015300020436F6E66696775726174696F6E2E689D
:1015400000504944204175746F74756E6520666162
:10155000696C6564212074696D656F757400204045
:101560003A006F6B20543A006F6B20423A005049AA
:1015700044204175746F74756E65206661696C6591
:1015800064212054656D7065726174757265207494
:101590006F6F206869676800204B643A2000204B19
:1015A000693A2000204B703A200020436C6173732D
:1015B00069632050494420002054753A2000204B94
:1015C000753A2000206D61783A2000206D696E3AEE
:1015D000200020643A200020626961733A200045AF
:1015E00072726F723A00436172642072656D6F7639
:1015F0006564004361726420696E7365727465642A
:10160000002D2D3A2D2D002D2D2D005344004C443E
:101610004D206D6F646500464646206D6F64650021
:10162000012000426162797374657070696E672091
:101630005A004261627973746570205A00466C6F7B
:1016400077203000466C6F77203000466C6F770053
:10165000466C6F770046616E207370656564004666
:10166000616E207370656564004E6F7A7A6C6500F8
:101670004E6F7A7A6C6500537065656400537065CF
:101680006564004D61696E00580059005A00457844
:101690007472756465720045787472756465720061
:1016A0004D6F7665205A004D6F76652059004D6F5D
:1016B00076652058004D6F76652061786973004D1E
:1016C0006F766520302E316D6D004D6F766520315F
:1016D0006D6D004D6F76652031306D6D0050726517
:1016E0007061726500506F736974696F6E202D3E72
:1016F0000047312058302059313930205A302046A7
:101700003130303030004731205A313020463130CE
:101710003030300047312058323635205931393099
:10172000205A3020463130303030004731205A3195
:101730003020463130303030004731205832363595
:10174000205930205A302046313030303000473177
:10175000205A313020463130303030004731205867
:1017600030205930205A3020463130303030004758
:1017700031205A31302046313030303000436F6FE5
:101780006C646F776E0050726568656174204142C9
:1017900053005072656865617420504C41004D6182
:1017A0006E75616C204C6576656C696E67004739B3
:1017B00032205A3000536574206F726967696E0079
:1017C0004D6F766520617869730047323800417546
:1017D000746F20686F6D65004D3834004469736123
:1017E000626C65207374657070657273004D616919
:1017F0006E0053746F7265206D656D6F7279004E67
:101800006F7A7A6C65004E6F7A7A6C650046616E0D
:101810002073706565640046616E20737065656451
:101820000054656D70657261747572650053746FF4
:101830007265206D656D6F7279004E6F7A7A6C6596
:10184000004E6F7A7A6C650046616E207370656534
:10185000640046616E2073706565640054656D7048
:101860006572617475726500507265686561742097
:1018700041425320636F6E66005072656865617403
:1018800020504C4120636F6E66005049442D430048
:101890005049442D43005049442D44005049442DA3
:1018A00044005049442D49005049442D49005049B5
:1018B000442D50005049442D5000200220466163C1
:1018C000740020022046616374002002204D61787C
:1018D000002002204D6178002002204D696E00201A
:1018E00002204D696E004F6666004F6E20004F6605
:1018F00066004F6E20004175746F74656D70004610
:10190000616E2073706565640046616E207370655A
:101910006564004E6F7A7A6C65004E6F7A7A6C65FA
:1019200000436F6E74726F6C004F6666004F6E20DE
:10193000004F6666004F6E2000456E6473746F70D2
:101940002061626F727400447269766572206375FB
:10195000722E00447269766572206375722E00459E
:1019600073746570732F6D6D004573746570732F9C
:101970006D6D005A73746570732F6D6D005A7374BA
:101980006570732F6D6D005973746570732F6D6D75
:10199000005973746570732F6D6D005873746570A2
:1019A000732F6D6D005873746570732F6D6D0041EA
:1019B0002D7265747261637400412D726574726179
:1019C000637400416D6178206500416D6178206528
:1019D00000416D6178207A00416D6178207A004184
:1019E0006D6178207900416D6178207900416D61E9
:1019F00078207800416D61782078005654726176C5
:101A0000206D696E005654726176206D696E0056C5
:101A10006D696E00566D696E00566D6178206500C7
:101A2000566D6178206500566D6178207A00566D9C
:101A30006178207A00566D6178207900566D617862
:101A4000207900566D6178207800566D6178207895
:101A50000056652D6A65726B0056652D6A65726B5E
:101A600000567A2D6A65726B00567A2D6A65726B24
:101A7000005678792D6A65726B005678792D6A6503
:101A8000726B00416363656C00416363656C004386
:101A90006F6E74726F6C00436C6179204D6F64657A
:101AA0002000436C6179204D6F646520005265739E
:101AB000746F7265206661696C73616665004C6F56
:101AC0006164206D656D6F72790053746F7265206B
:101AD0006D656D6F7279004C444D206D6F646520AB
:101AE00028636C617929004D6F74696F6E005465CD
:101AF0006D7065726174757265004D61696E004D3F
:101B0000383420582059205A20450053544F505003
:101B100045442E200041524520594F5520535552DF
:101B2000453F200041524520594F552053555245BD
:101B30003F20004D3234004D323320257300052EF6
:101B40002E004D61696E00496E666F004E6F205326
:101B5000442063617264005072696E742066726F13
:101B60006D2053440053746F70207072696E74005E
:101B700053746F7020616E642053617665004D363A
:101B8000303000506175736520666F722066696C35
:101B9000616D656E74004D3235005061757365205E
:101BA0007072696E7400436F6E74726F6C00507265
:101BB00065706172650054756E6500496E666F20D0
:101BC00073637265656E0000000A0B02090C0D0E4E
:101BD00008070304010000000000000000000000EE
:101BE00000000000000000000000000000000000F5
:101BF00000000012111000000000000000000000B2
:101C000000000000000000000000000000010210C1
:101C10002020080810204010204080020102010806
:101C200004020101020408102040808040201008B6
:101C3000040201800402018040201008040201080F
:101C4000040201010204081020408001020408106F
:101C5000204080050505050705080808080202025E
:101C6000020A0A0808040404040101010101010137
:101C7000010303030303030303040707070C0C0C0E
:101C80000C0C0C0C0C0202020206060606060606E6
:101C9000060B0B0B0B0B0B0B0B0000220025002877
:101CA000002B002E00310034000201000005010865
:101CB000010B0100002100240027002A002D003024
:101CC00000330001010000040107010A01024E4136
:101CD0004E494E495459494E46CDCCCC3D0AD723A6
:101CE0003C17B7D13877CC2B329595E6241FB14FEE
:101CF0000A000020410000C84200401C4620BCBE33
:101D00004CCA1B0E5AAEC59D7400407A10F35A009F
:101D1000A0724E18090010A5D4E80000E876481714
:101D20000000E40B54020000CA9A3B000000E1F5F9
:101D300005000080969800000040420F000000A0BF
:101D40008601000000102700000000E803000000EA
:101D5000006400000000000A000000000001000014
:101D60000000002C76D888DC674F0823DFC1DFAE87
:101D700059E1B1B796E5E3E453C63AE65199769650
:101D8000E8E6C28426EB898C9B62ED407C6FFCEF19
:101D9000BC9C9F40F2BAA56FA5F490055A2AF75C47
:101DA000936B6CF9676DC11BFCE0E40D47FEF520F9
:101DB000E6B500D0ED902E030094357705008084C1
:101DC0001E080000204E0A000000C80C33333333D5
:101DD0000F986E12831141EF8D2114893BE6551641
:101DE000CFFEE6DB18D1844B381BF77C1D901DA479
:101DF000BBE424203284725E228100C9F124ECA16C
:101E0000E53D2700014C1F9DD5B4054C11241FBE94
:101E1000CFEFD1E2DEBFCDBF00E00CBF15E0A0E008
:101E2000B2E0E2E4F9E901E00BBF02C007900D92D5
:101E3000A63CB107D9F724E1A6ECB5E001C01D929C
:101E4000A737B207E1F71EE1CAE0DEE100E006C015
:101E500022970109FE010BBF0E9465C3C430D10760
:101E600080E00807A9F70E948FBA0C948FCC0C94DD
:101E70000000FC0114821782138212828EEB94E020
:101E80009183808308952EEB34E0FC01318320831D
:101E90002781222319F004960C9410650895CF929F
:101EA000DF92EF92FF920F931F93CF93DF93EC019A
:101EB0008F96DFDFCE01805B9F4FDBDF7E012FE659
:101EC000E20EF11C87016E013BE5C31A3EEFD30A17
:101ED000C801CFDF015E1F4F0C151D05C9F7FE01BC
:101EE000E955FE4F89E1818314823596178ACE0128
:101EF00086539E4FBEDFCE0187519E4FBADFFE0153
:101F0000E656FD4F1082118212821382389610829B
:101F10001182128213821A821B82188219826E0128
:101F200082E6C81A8DEFD80AF60110821182128259
:101F30001382F80111821082FE01E85FFD4F1082CA
:101F400086E391E0F7019C01119221503040E1F7C6
:101F5000FE01EA55FD4F81E080831EA61DA60E946A
:101F600048B868577C4E8F4F9F4FF601608371834E
:101F700082839383DF91CF911F910F91FF90EF9018
:101F8000DF90CF900895FC0120E03EE2DB014C9110
:101F9000403241F0283011F430833196DB014C910E
:101FA000408331962F5F6F5F7F4F2B3079F7108220
:101FB00008952F923F924F925F926F927F928F92ED
:101FC0009F92AF92BF92CF92DF92EF92FF920F93C8
:101FD0001F93CF93DF93CDB7DEB7C858D1090FB6A3
:101FE000F894DEBF0FBECDBF8C016B017A014901B1
:101FF000CA57DF4F1882C658D04084E0E80EF11C63
:102000001801E1E12E0E311C3801F9E56F1AFDEFE0
:102010007F0A580187E5A81A8DEFB80A80E4482E98
:10202000512C4C0E5D1EE4E04E0E511CA101BE0170
:102030006F5F7F4FC7010E947A6318160CF037C19B
:102040002C85322F3871303109F09EC0F301808128
:1020500091810197029708F497C0BE016F5F7F4F8F
:10206000CE0187589F4F8FDFA0961FAEA097F60135
:102070008081811107C067EF72E0CE01815A9F4FC6
:102080000E94BBC6B601CE01815A9F4F0E94BBC6BB
:10209000BE0167587F4FCE01815A9F4F0E94BBC639
:1020A00067EF72E0CE01815A9F4F0E94BBC6CE01FE
:1020B000805C9F4FDEDE21E0AE0147585F4FB701E5
:1020C000C2010E940767811139C0F30180819181AB
:1020D000892BA1F5EAEBF3E08491882341F09091FC
:1020E000C00095FFFCCF8093C6003196F5CFE9EF95
:1020F000F2E08191882339F09091C00095FFFCCFE8
:102100008093C600F6CF8091C00085FFFCCF8AE0A7
:102110008093C600FE01E758FF4F8191882339F074
:102120009091C00095FFFCCF8093C600F6CF8091C0
:10213000C00085FFFCCF8AE08093C6008BE1FE01E2
:10214000EC5BFF4FDE01959601900D928A95E1F7C9
:1021500024968EAD9FAD24979CA38BA38EEB94E029
:102160009AA389A320E030E0AE014F5D5F4FBE012E
:10217000615A7F4FC8011DDFCE01819684DECE01FA
:10218000805C9F4F80DE52CF8981882309F48FC005
:102190008E3209F44BCF8F3509F448CFF80181898D
:1021A0008E3209F443CF8F3509F440CF23FD3ECF63
:1021B00081E0303109F080E0F80184A7811108C086
:1021C0008985873409F032CF8A858E3709F42ECF7E
:1021D00098012C5F3F4FBE016F5F7F4FC901C95708
:1021E000DF4F2883C758D040C857DF4F3883C858BF
:1021F000D040C9DEF30180819181C957DF4F28812A
:10220000C758D040C857DF4F3881C858D0400097D2
:10221000F1F4F6018191882339F09091C00095FF87
:10222000FCCF8093C600F6CFF9018191882339F065
:102230009091C00095FFFCCF8093C600F6CF8091AF
:10224000C00085FFFCCF8AE08093C600EFCE8130CE
:10225000910539F4F5018081918101969183808304
:10226000E5CE029709F0E2CE8114910439F0B9016C
:10227000C4010E94A8C6892B71F419C0CA57DF4F48
:10228000F881C658D0402F2F30E0F5018081918130
:102290002817390761F0CA57DF4FF881C658D04078
:1022A000FF5FCA57DF4FF883C658D040BFCEC8572C
:1022B000DF4F0FB6F894DEBF0FBECDBFDF91CF91D9
:1022C0001F910F91FF90EF90DF90CF90BF90AF9054
:1022D0009F908F907F906F905F904F903F902F9046
:1022E0000895EF92FF920F931F93CF93DF93CDB793
:1022F000DEB76F970FB6F894DEBF0FBECDBF8C016F
:10230000FC01E955FD4F118210827C0183E3E80E48
:10231000F11C40E050E0BA01C7010E942D648BE13E
:10232000F701DE01159601900D928A95E1F7F8010B
:1023300081A992A99C838B838EEB94E09A838983F5
:1023400020E030E0AE014F5F5F4F64E573E0C8010D
:1023500030DECE01019697DD6F960FB6F894DEBFA2
:102360000FBECDBFDF91CF911F910F91FF90EF90E6
:1023700008952BE1FB013496DC01149601900D9237
:102380002A95E1F7FB0122813381FC01338322830B
:102390000895EF92FF920F931F93CF93DF93EC0179
:1023A0001B828EA9882321F0CE01C3960E9410655E
:1023B0007E0189E5E81A8EEFF80A45E360E0C7017F
:1023C0000E94915F81111FC0EAEBF3E084918823A2
:1023D00041F09091C00095FFFCCF8093C6003196EC
:1023E000F5CFEDEAF3E08491882341F09091C000AD
:1023F00095FFFCCF8093C6003196F5CF8091C00049
:1024000085FFFCCF76C08E0104551E4F41E0B70119
:10241000C8010E946A6D811126C040E0B701C80161
:102420000E946A6D81111FC0E0ECF3E08491882363
:1024300041F09091C00095FFFCCF8093C60031968B
:10244000F5CFEAE9F3E08491882341F09091C00050
:1024500095FFFCCF8093C6003196F5CF8091C000E8
:1024600085FFFCCF46C0B801CE01C3960E941E6214
:1024700081111FC0E0ECF3E08491882341F090913A
:10248000C00095FFFCCF8093C6003196F5CFEAE8F7
:10249000F3E08491882341F09091C00095FFFCCF38
:1024A0008093C6003196F5CF8091C00085FFFCCFA8
:1024B00020C081E08B83EAEBF3E08491882341F034
:1024C0009091C00095FFFCCF8093C6003196F5CF68
:1024D000EFE7F3E08491882341F09091C00095FFED
:1024E000FCCF8093C6003196F5CF8091C00085FF68
:1024F000FCCF8AE08093C6008E01015D1F4FB801BA
:10250000CE01805B9F4F35DFC25BDF4F19830883AD
:10251000DF91CF911F910F91FF90EF900895FC01F3
:10252000128213820895FC012381222311F021E0FD
:1025300022830895AF92BF92CF92DF92EF92FF92E3
:102540000F931F93CF93DF931F92CDB7DEB78C010C
:102550008FE2FB0181935F01D12C41E07801FBE523
:10256000EF1AFEEFFF0A9FE1C92E2D2D30E0F70193
:102570008081918128173907D8F4C29EC001C39E7B
:10258000900D11248D589F4FB501800F911F4983E5
:102590000E94C561C50149815C010196F501208158
:1025A000222321F04D3810F44F5FF6CFD394DDCFC6
:1025B00047FD11C0B501C80182539E4F0F90DF91B6
:1025C000CF911F910F91FF90EF90DF90CF90BF9030
:1025D000AF900C94C561F50110820F90DF91CF91FF
:1025E0001F910F91FF90EF90DF90CF90BF90AF9031
:1025F00008953F924F925F926F927F928F929F9237
:10260000AF92BF92CF92DF92EF92FF920F931F9300
:10261000CF93DF93CDB7DEB7AC970FB6F894DEBF9C
:102620000FBECDBF7C015B01FC018381882309F4CF
:1026300007C1C70182539E4F0E941065F7011282A5
:10264000CE0101966C0115DC27019EE4490E511C58
:10265000C7018F96F20191838083F50180818F32CB
:1026600009F084C06FE270E0C5010E94C6C68C010B
:102670000F5F1F4F2AE0322E0115110509F47CC0AF
:102680006FE270E0C8010E94C6C64C01009709F4D1
:1026900074C00817190708F070C03C01601A710A6D
:1026A000A301B801CE0180960E94E6C6E0E2F0E008
:1026B000EC0FFD1FE60DF71D1082FE01B096819113
:1026C000882339F09091C00095FFFCCF8093C6001D
:1026D000F6CF8091C00085FFFCCF3092C600F2019A
:1026E000608171816115710519F06C5F7F4F02C0C7
:1026F00060E070E021E0AE01405E5F4FCE010596E4
:102700000E94076781112BC0E4E5F2E084918823E1
:1027100041F09091C00095FFFCCF8093C6003196A8
:10272000F5CFFE01B0968191882339F09091C000D9
:1027300095FFFCCF8093C600F6CFE2E5F2E08491EE
:10274000882341F09091C00095FFFCCF8093C60094
:102750003196F5CF8091C00085FFFCCF6CC0F201AF
:10276000D182C08284010F5F1F4F86CFC701805B7B
:102770009F4FF201918380838501F20180819181D5
:10278000009711F0049602C080E090E0B8010E942A
:102790004D68882339F1E4E4F2E08491882341F024
:1027A0009091C00095FFFCCF8093C6003196F5CF85
:1027B000F8018191882339F09091C00095FFFCCFFA
:1027C0008093C600F6CF8091C00085FFFCCF8AE0E1
:1027D0008093C600F701EE55FD4F108211821282E0
:1027E00013822CC0ECE2F2E08491882341F09091B6
:1027F000C00095FFFCCF8093C6003196F5CFF8015D
:102800008191882339F09091C00095FFFCCF80938F
:10281000C600F6CFEAE2F2E08491882341F090917D
:10282000C00095FFFCCF8093C6003196F5CF809114
:10283000C00085FFFCCF8AE08093C600C60123DB81
:10284000AC960FB6F894DEBF0FBECDBFDF91CF912F
:102850001F910F91FF90EF90DF90CF90BF90AF90BE
:102860009F908F907F906F905F904F903F900895D2
:10287000CF93DF93EC018B818823C1F1E8E1F2E093
:102880008491882341F09091C00095FFFCCF809304
:10289000C6003196F5CFFE01EE55FD4F40815181C6
:1028A000628173812AE030E086EC95E00E944F2639
:1028B000E6E1F2E08491882341F09091C00095FF19
:1028C000FCCF8093C6003196F5CFC656DD4F4881C8
:1028D00059816A817B812AE030E086EC95E00E9494
:1028E0004F268091C00085FFFCCF11C0E6E0F2E0EA
:1028F0008491882341F09091C00095FFFCCF809394
:10290000C6003196F5CF8091C00085FFFCCF8AE0EC
:102910008093C600DF91CF910895AF92BF92CF927E
:10292000DF92EF92FF920F931F93CF93DF935C019F
:10293000EB01FB0101900020E9F78F010150110923
:10294000061B170B6C01F2E3CF1AFEEFDF0AF6014C
:1029500010826EE470E0CE010E94C6C67C01009732
:1029600029F4F8013197EC0FFD1F0DC060E270E013
:102970000E94C6C6EC0121966AE270E0C7010E947F
:10298000C6C6FC0131978DE081838AE08283138281
:10299000BE01C50186539E4F0E94136AF6018081D5
:1029A000882309F1E0ECF3E08491882341F09091D1
:1029B000C00095FFFCCF8093C6003196F5CFE0EFC5
:1029C000F1E08491882341F09091C00095FFFCCF05
:1029D0008093C6003196F5CF8091C00085FFFCCF73
:1029E0008AE08093C600DF91CF911F910F91FF90F5
:1029F000EF90DF90CF90BF90AF9008952F923F92CD
:102A00004F925F926F927F928F929F92AF92BF92FE
:102A1000CF92DF92EF92FF920F931F93CF93DF93AA
:102A2000CDB7DEB7CC55D1090FB6F894DEBF0FBED7
:102A3000CDBF8C018A559D4F5C01662339F0F501AD
:102A40001082F801838181111DC015C0FC018081B5
:102A5000882309F4ADC0F801E256FD4FC080D18053
:102A6000E280F3800E9448B8C616D706E806F90649
:102A700008F49EC0E4CFC8018CDCF8018381882370
:102A800009F496C0F80186A58F9385A58F9387EEEC
:102A900091E09F938F937E01FFE3EF0EF11CFF9275
:102AA000EF920E945FC70F900F900F900F900F90C2
:102AB0000F90B12CF70101900020E9F73197EE1942
:102AC000FF09BE1684F46701CB0CD11CB7FCDA9465
:102AD000F6018081992787FD90950E9439C6F601FD
:102AE0008083B394E7CF4801F3E38F0E911C40E05D
:102AF00050E0BA01C4010E942D64512CCE01019610
:102B00006C0130EE632E31E0732E5E0191E2A90E6E
:102B1000B11C40E050E0B601C4010E947A6318166F
:102B2000DCF5412CF60101900020E9F73197EC1912
:102B3000FD094E1674F41601240C311C47FC3A941E
:102B4000F101808190E00E9439C6F10180834394B5
:102B5000E9CF8A858E37E9F245E050E0B701C6013A
:102B60000E94D8C6892BA9F6FF92EF927F926F92AE
:102B7000BF92AF920E945FC7C5010E94B8288CED3A
:102B800091E00E942B290F900F900F900F900F90C3
:102B90000F9055245394BDCF511004C08FEF9FEF79
:102BA000F80104C0F80185A596A5019696A785A70A
:102BB000C45ADF4F0FB6F894DEBF0FBECDBFDF9112
:102BC000CF911F910F91FF90EF90DF90CF90BF902A
:102BD000AF909F908F907F906F905F904F903F90BD
:102BE0002F9008953F924F925F926F927F928F92B3
:102BF0009F92AF92BF92CF92DF92EF92FF920F938C
:102C00001F93CF93DF93CDB7DEB7CD51D1400FB631
:102C1000F894DEBF0FBECDBF7C01D62E0E9448B80F
:102C20002B013C01870102531E4FC8010E94C6645C
:102C3000C8010E941065F70110821182DD2009F49D
:102C4000EAC1EE55FD4F83818F9382818F938181FD
:102C50008F9380818F938CE093E09F938F931F924B
:102C60008BE08F935E01F7EEAF0EB11CBF92AF9277
:102C70000E94F5C660E173E0CE0188529F4F0E942A
:102C8000D1C6670123E1C21A2EEFD20A22E0AE01BB
:102C900048525F4FB7016C5A7F4FC6010E940767C9
:102CA00060914A0870914B0880914C0890914D08B2
:102CB0008E010D5E1E4F23E041E00E9478C36091BB
:102CC0004E0870914F0880915008909151080B5018
:102CD000110923E041E00E9478C36091520870918D
:102CE000530880915408909155080B50110923E026
:102CF00041E00E9478C36091560870915708809116
:102D00005808909159080B50110923E041E00E94A6
:102D100078C369E173E0CE01C3960E94D1C6BE01BB
:102D200063507F4FCE01C3960E94BBC66FE173E034
:102D3000CE018B599F4F0E94D1C6BE016D5E7E4F62
:102D4000CE018B599F4F0E94BBC664E273E0CE0157
:102D50008B599F4F0E94BBC6BE01685F7E4FCE015C
:102D60008B599F4F0E94BBC66CE173E0CE018B591B
:102D70009F4F0E94BBC6BE0163507F4FCE018B594F
:102D80009F4F0E94BBC667E273E0CE018B599F4FF5
:102D90000E94BBC66FE273E0CE0101960E94D1C6CD
:102DA000B801CE0101960E94BBC60FB6F894DEBFF3
:102DB0000FBECDBF312C87010C5F1F4FF801019072
:102DC0000020E9F73197E01BF10B3E1684F4470130
:102DD000830C911C37FC9A94F4018481992787FD18
:102DE00090950E9439C6F40184833394E7CF65E35C
:102DF00073E0CE0189569F4F0E94D1C6B501CE0126
:102E000089569F4F0E94BBC66BE373E0CE01895683
:102E10009F4F0E94BBC6B801CE0189569F4F0E94AA
:102E2000BBC6EEE3F3E08191882339F09091C000B6
:102E300095FFFCCF8093C600F6CF8091C00085FF40
:102E4000FCCF8AE08093C600809125089701275126
:102E50003E4F7901811105C06AE473E0C9010E9407
:102E6000136ABE016D5C7F4FC7010E94136A63E560
:102E700073E0C7010E94136A65E573E0C7010E9411
:102E8000136A8091250881113DC08091210890919D
:102E9000220818161906BCF49F938F9380E693E0DE
:102EA0009F938F938E0107531F4F1F930F930E9481
:102EB00031C7B801C7010E94136A0F900F900F909D
:102EC0000F900F900F90809123089091240818166E
:102ED0001906ECF49F938F938AE693E09F938F9368
:102EE0008E0107531F4F1F930F930E9431C7B801E4
:102EF000C7010E94136A0F900F900F900F900F90D0
:102F00000F9005C064E773E0C7010E94136ABE0119
:102F10006B597F4FC7010E94136A63E573E0C701D5
:102F20000E94136A80911102909112028B309105D8
:102F3000BCF09F938F938AE793E09F938F938E01CA
:102F400007531F4F1F930F930E9431C7B801C7014A
:102F50000E94136A0F900F900F900F900F900F9098
:102F6000BE016F5F7F4FC7010E94136A63E573E084
:102F7000C7010E94136ABE0169567F4FC7010E94B4
:102F8000136A63E573E0C7010E94136AC6010E94D9
:102F9000C664C6010E941065EEECF1E084918823BE
:102FA00041F09091C00095FFFCCF8093C600319610
:102FB000F5CF0E9448B8AB01BC0144195509660918
:102FC00077092AE030E086EC95E00E944F26809158
:102FD000C00085FFFCCF8AE08093C6006CE271E000
:102FE00080E090E00E9477B884EC91E00E942B2969
:102FF00080912508811108C010921D1310921C1396
:1030000010921B1310921A138AE090E09093120210
:103010008093110212C08AE090E090931202809394
:10302000110280912508811108C010921D13109281
:103030001C1310921B1310921A13C35EDE4F0FB6AF
:10304000F894DEBF0FBECDBFDF91CF911F910F91DE
:10305000FF90EF90DF90CF90BF90AF909F908F90B8
:103060007F906F905F904F903F900895CF92DF9246
:10307000EF92FF920F931F93CF93DF93CDB7DEB7FD
:103080006F970FB6F894DEBF0FBECDBF8C016A01FB
:103090007C018EE4E80EF11CC801805B9F4FF701B4
:1030A00091838083E75AFD4F22E030E03183208313
:1030B00032967183608340E050E0BA0104960E942A
:1030C0002D64F701808191812BE1FC013496DE01B2
:1030D000159601900D922A95E1F7FC01828193816A
:1030E0009C838B838EEB94E09A8389839601AE0157
:1030F0004F5F5F4F64E573E0C8010E94D90FCE01B6
:1031000001960E94430F6F960FB6F894DEBF0FBE74
:10311000CDBFDF91CF911F910F91FF90EF90DF9086
:10312000CF9008952F923F924F925F926F927F922D
:103130008F929F92AF92BF92CF92DF92EF92FF92C7
:103140000F931F93CF93DF93CDB7DEB7AC970FB636
:10315000F894DEBF0FBECDBF7C016B01342E722E02
:10316000FC018381882309F4ABC3E0E1F3E0DB01D8
:103170009D918191981307C023E0E931F207C1F7CF
:103180001092130230C081E080931302570132E3A2
:10319000A31A3EEFB30A60E173E0C5010E94C46761
:1031A000F701EC5AFF4F4F0181110DC001E010E013
:1031B00020E030E040E153E0BF01C5010E94FF671D
:1031C000C5010E94106522E040E153E0B401C50151
:1031D0000E94076740E050E0BA01C5010E941D65EA
:1031E000C5010E941065F701EF52FE4F80818823D0
:1031F00009F40EC17110C2C08701085F1D4FF801AC
:103200008081882361F1E0ECF3E08491882341F030
:103210009091C00095FFFCCF8093C6003196F5CF0A
:10322000ECE3F3E08491882341F09091C00095FF96
:10323000FCCF8093C6003196F5CF4AE050E061E0C4
:1032400070E086EC95E00E9423268091C00085FF07
:10325000FCCF8AE08093C6000E94C33131C3EAEB01
:10326000F3E08491882341F09091C00095FFFCCF5A
:103270008093C6003196F5CFE3E2F3E08491882392
:1032800041F09091C00095FFFCCF8093C60031962D
:10329000F5CFF6018191882339F09091C00095FF18
:1032A000FCCF8093C600F6CFE8E1F3E08491882359
:1032B00041F09091C00095FFFCCF8093C6003196FD
:1032C000F5CFF80180816DE8B62EB701B89E600D8C
:1032D000711D1124635F7D4FC7012CD9F8018081D6
:1032E000F701B89EE00DF11D1124E35FFD4F8191C0
:1032F000882339F09091C00095FFFCCF8093C600E1
:10330000F6CFE2E1F3E08491882341F09091C00090
:1033100095FFFCCF8093C6003196F5CF5701FEE5AF
:10332000AF1AFDEFBF0AF5014081518162817381BF
:103330002AE030E086EC95E00E944F268091C000A4
:1033400085FFFCCF8AE08093C600F8012081F70159
:1033500034E0239FE00DF11D1124AF01475F5D4F65
:10336000F50180819181A281B381FA0180839183EB
:10337000A283B3832F5FF801208344C0EAEBF3E01C
:103380008491882341F09091C00095FFFCCF8093F9
:10339000C6003196F5CFE1E0F3E08491882341F057
:1033A0009091C00095FFFCCF8093C6003196F5CF79
:1033B000F6018191882339F09091C00095FFFCCFF0
:1033C0008093C600F6CF8091C00085FFFCCF8AE0D5
:1033D0008093C60080E090E0F701E80FF91F1482A7
:1033E00001968E309105C1F7F60101900020E9F7B2
:1033F000AF01415051094C195D09B601C70104964E
:103400000E94E6C6C70182539E4F0E94106548C0C5
:10341000F701E85FFD4F1082EAEBF3E08491882327
:1034200041F09091C00095FFFCCF8093C60031968B
:10343000F5CFE0EFF2E08491882341F09091C00055
:1034400095FFFCCF8093C6003196F5CFF6018191B0
:10345000882339F09091C00095FFFCCF8093C6007F
:10346000F6CF8091C00085FFFCCF8AE08093C60034
:1034700080E090E0F701E80FF91F148201968E308A
:103480009105C1F7F60101900020E9F7AF01415025
:1034900051094C195D09B601C70104960E94E6C6A0
:1034A000F70112829E012F5F3F4F5901C9010E940F
:1034B000390F27013EE4430E511CC7018F96F201DC
:1034C00091838083F60180818F3209F084C06FE29E
:1034D00070E0C6010E94C6C68C010F5F1F4F5AE004
:1034E000252E0115110509F47CC06FE270E0C801BA
:1034F0000E94C6C64C01009709F474C0081719074A
:1035000008F070C03C01601A710AA301B801CE0135
:1035100080960E94E6C6E0E2F0E0EC0FFD1FE60DAB
:10352000F71D1082FE01B0968191882339F09091A9
:10353000C00095FFFCCF8093C600F6CF8091C000FD
:1035400085FFFCCF2092C600F20160817181611578
:10355000710519F06C5F7F4F02C060E070E021E000
:10356000AE01405E5F4FCE0105960E940767811154
:103570002BC0ECEDF2E08491882341F09091C000E3
:1035800095FFFCCF8093C6003196F5CFFE01B09633
:103590008191882339F09091C00095FFFCCF8093F2
:1035A000C600F6CFEAEDF2E08491882341F09091D5
:1035B000C00095FFFCCF8093C6003196F5CF809177
:1035C000C00085FFFCCF50C1F201B182A08284010E
:1035D0000F5F1F4F86CFC701805B9F4FF201918322
:1035E00080838601970122533E4F4901F201608199
:1035F0007181332009F400C16115710519F06C5F08
:103600007F4F02C060E070E021E0A801C4010E9489
:103610000767882309F4C6C0F40181899289A389C8
:10362000B489F701E656FD4F80839183A283B3836B
:10363000ECECF2E08491970126563D4F6901882316
:1036400049F09091C00095FFFCCF8093C600319661
:103650008491F5CFF8018191882339F09091C000D1
:1036600095FFFCCF8093C600F6CFE4ECF2E08491A6
:10367000882341F09091C00095FFFCCF8093C60055
:103680003196F5CFF60140815181628173812AE044
:1036900030E086EC95E00E944F268091C00085FFC7
:1036A000FCCF8AE08093C600F60180819181A281DF
:1036B000B3810297A105B10508F04AC0E4E8F3E040
:1036C0008191882339F09091C00095FFFCCF8093C1
:1036D000C600F6CF8091C00085FFFCCF8AE08093C2
:1036E000C60084EB92E00E940793F701128260E02B
:1036F000C70178DA0E94DD76809125088111DDC04E
:103700008091E60F882309F4D8C01092E60F00914B
:10371000200810E0000F111F045E1C4EF8016081AC
:103720007181882777FD8095982F0E94E2BF2091B4
:1037300042023091430240914402509145020E945E
:1037400043C118160CF0B9C0F80111821082B5C03F
:103750000E940D93F701EE55FD4F108211821282E7
:103760001382E6EAF2E08491882341F09091C00050
:1037700095FFFCCF8093C6003196F5CF8091C000B5
:1037800085FFFCCF8AE08093C600A80160E070E06E
:10379000C7016CDCF7018189882309F48BC0C7015C
:1037A000419689C0E2E9F2E08491882341F090914A
:1037B000C00095FFFCCF8093C6003196F5CFF8018D
:1037C0008191882339F09091C00095FFFCCF8093C0
:1037D000C600F6CFE0E9F2E08491882341F09091B1
:1037E000C00095FFFCCF8093C6003196F5CF809145
:1037F000C00085FFFCCF38C06115710519F06C5F02
:103800007F4F02C060E070E026E5A801C4010E947D
:10381000076781112DC0ECE7F2E08491882341F025
:103820009091C00095FFFCCF8093C6003196F5CFF4
:10383000F8018191882339F09091C00095FFFCCF69
:103840008093C600F6CFEAE7F2E08491882341F046
:103850009091C00095FFFCCF8093C6003196F5CFC4
:103860008091C00085FFFCCF8AE08093C60025C010
:1038700081E0F7018083E8E6F2E08491882341F05B
:103880009091C00095FFFCCF8093C6003196F5CF94
:10389000F6018191882339F09091C00095FFFCCF0B
:1038A0008093C600F6CF8091C00085FFFCCF8AE0F0
:1038B0008093C600C8010E94E992C5010E94430F8F
:1038C000AC960FB6F894DEBF0FBECDBFDF91CF919F
:1038D0001F910F91FF90EF90DF90CF90BF90AF902E
:1038E0009F908F907F906F905F904F903F902F9020
:1038F000089521E0FC01218340E014CCCF92DF92B7
:10390000EF92FF920F931F93CF93DF93CDB7DEB764
:103910006F970FB6F894DEBF0FBECDBF8C016C0160
:103920002EE4C20ED11C805B9F4FF60191838083F1
:10393000E75AFD4F21E030E0318320837801F7E53D
:10394000EF1AFDEFFF0AF7011182108240E050E00C
:10395000BA0104960E942D64F601808191812BE1C9
:10396000FC013496DE01159601900D922A95E1F73F
:10397000FC01828193819C838B838EEB94E09A83FC
:10398000898320E030E0AE014F5F5F4F64E573E074
:10399000C8010E94D90FCE0101960E94430FF70182
:1039A000808191816F960FB6F894DEBF0FBECDBFB8
:1039B000DF91CF911F910F91FF90EF90DF90CF900B
:1039C0000895AF92BF92CF92DF92EF92FF920F9342
:1039D0001F93CF93DF93CDB7DEB76F970FB6F894F1
:1039E000DEBF0FBECDBF8C017B01CE0101960E94D0
:1039F000390FF801E95AFF4F80816801811104C035
:103A00002FE2C20ED11C03C080E5C80ED11C21E0FC
:103A1000A701B6016C5F7F4FCE0105960E94076734
:103A200081112DC0EAEBF3E08491882341F090915D
:103A3000C00095FFFCCF8093C6003196F5CFEEEA2B
:103A4000F1E08491882341F09091C00095FFFCCF74
:103A50008093C6003196F5CFF7018191882339F024
:103A60009091C00095FFFCCF8093C600F6CF809167
:103A7000C00085FFFCCF8AE08093C60036C0F80105
:103A8000EB55FE4F808191818A30910530F59C0184
:103A90002F5F3F4F318320832FE1289F7001299FA3
:103AA000F00C11242FE6E20EF11CE00EF11E5C0179
:103AB000B701C7014F960E94B91181E0A81AB10859
:103AC0002FE1E21AF1088FEFA816B80689F7B601C0
:103AD000C80181599F4F0E94B911BE016F5F7F4F8E
:103AE000C801805B9F4F0E94B911CE0101960E94D0
:103AF000430F6F960FB6F894DEBF0FBECDBFDF91B8
:103B0000CF911F910F91FF90EF90DF90CF90BF90DA
:103B1000AF900895EF92FF920F931F93CF93DF938F
:103B2000EC01CB55DE4F2881398121153105F9F0A3
:103B300021503109398328838C0101591F4FB80165
:103B4000805B9F4F0E94B911C80100E010E07C012A
:103B50002FE1E20EF11C288139810217130738F496
:103B60000F5F1F4FB7010E94B911C701F0CFDF915E
:103B7000CF911F910F91FF90EF900895EF92FF92D8
:103B80000F931F93CF93DF93EC010E9465768E0114
:103B9000085F1D4FF80180819E0122533E4F79013D
:103BA0008823A1F1C9010E941065F801808181502C
:103BB0008083BE01FDE88F9F600D711D1124635F3E
:103BC0007D4F21E041E0CE01ADDAF8018081FE01B8
:103BD00024E0829FE00DF11D1124E75FFD4F40813D
:103BE000518162817381FE01EE55FD4F4083518307
:103BF00062837383C7010E942D64CE01DF91CF9150
:103C00001F910F91FF90EF900C9493120E94DD761C
:103C1000C7010E9410651A8282EA91E00E942B2956
:103C20008091E60F8823F9F01092E60FC0912008EA
:103C3000D0E0CC0FDD1FC45EDC4E6881798188271F
:103C400077FD8095982F0E94E2BF2091420230912B
:103C5000430240914402509145020E9443C118160C
:103C600014F419821882DF91CF911F910F91FF9068
:103C7000EF900895EF92FF920F931F93CF93DF93EE
:103C80001F92CDB7DEB78C017B01460FF701619122
:103C90007F01F8018081918149830E9483C9F801E5
:103CA0008081918101969183808349814E11EECF6D
:103CB0000F90DF91CF911F910F91FF90EF9008959A
:103CC000EF92FF920F931F93CF93DF931F92CDB785
:103CD000DEB78C017B01460FF80180819181498319
:103CE0000E947BC9F70181937F01F8018081918156
:103CF00001969183808349814E11EECF0F90DF9121
:103D0000CF911F910F91FF90EF9008950F931F9304
:103D1000CF93DF93CDB7DEB72C970FB6F894DEBF05
:103D20000FBECDBF80E390E3A5E3B0E08D839E831B
:103D3000AF83B88704E610E01C870B8744E0BE0120
:103D40006B5F7F4FCE010B9695DF40E16BE470E136
:103D5000CE010B968FDF40E16BE570E1CE010B9653
:103D600089DF40E167E370E1CE010B9683DF44E039
:103D70006FE270E1CE010B967DDF44E06BE270E113
:103D8000CE010B9677DF44E063E370E1CE010B9642
:103D900071DF44E06BE170E1CE010B966BDF44E034
:103DA0006BE670E1CE010B9665DF44E067E270E1FF
:103DB000CE010B965FDF44E063E270E1CE010B962B
:103DC00059DF44E06FE170E1CE010B9653DF4CE028
:103DD0006EE378E0CE010B964DDF42E06CE773E1D5
:103DE000CE010B9647DF42E06AE773E1CE010B9606
:103DF00041DF42E068E773E1CE010B963BDF42E032
:103E000066E773E1CE010B9635DF42E064E773E1CC
:103E1000CE010B962FDF42E062E773E1CE010B96F5
:103E200029DF44E06AE278E0CE010B9623DF44E02C
:103E300062E672E0CE010B961DDF44E06EE572E0B3
:103E4000CE010B9617DF44E06AE572E0CE010B96D7
:103E500011DF80E290E09A87898742E0BE01675FC8
:103E60007F4FCE010B9606DF41E065E278E0CE01A0
:103E70000B9600DF44E066E278E0CE010B96FADEB6
:103E800042E06CE578E0CE010B96F4DE44E067E4B6
:103E900070E1CE010B96EEDE86E591E3A0E3B0E0A3
:103EA00089839A83AB83BC831C870B8744E0BE0164
:103EB0006F5F7F4FCE010B96DDDEEBEDF5E0849179
:103EC000882341F09091C00095FFFCCF8093C600FD
:103ED0003196F5CFEBECF5E08491882341F0909199
:103EE000C00095FFFCCF8093C6003196F5CF80913E
:103EF000C00085FFFCCF8AE08093C6002C960FB6E9
:103F0000F894DEBF0FBECDBFDF91CF911F910F910F
:103F10000895CF93DF93CBEDD5E0FE018491882304
:103F200041F09091C00095FFFCCF8093C600319680
:103F3000F5CFEBEBF5E08491882341F09091C00040
:103F400095FFFCCF8093C6003196F5CF8091C000DD
:103F500085FFFCCF8AE08093C600FE018491EBEDE3
:103F6000F5E0882349F09091C00095FFFCCF809345
:103F7000C60031968491F5CF40914B1050914C1072
:103F800060914D1070914E1083EB95E00E9479285E
:103F900040914F10509150106091511070915210FB
:103FA00080EB95E00E947928409153105091541075
:103FB00060915510709156108DEA95E00E94792815
:103FC00040915710509158106091591070915A10AB
:103FD0008AEA95E00E9479288091C00085FFFCCF95
:103FE0008AE08093C600FE018491EBEDF5E0882322
:103FF00049F09091C00095FFFCCF8093C6003196A8
:104000008491F5CFE0E9F5E08491882341F0909127
:10401000C00095FFFCCF8093C6003196F5CF80910C
:10402000C00085FFFCCF8AE08093C600FE0184912A
:10403000EBEDF5E0882349F09091C00095FFFCCFAF
:104040008093C60031968491F5CF40915B105091DA
:104050005C1060915D1070915E1087E895E00E94A1
:10406000792840915F1050916010609161107091BB
:10407000621084E895E00E94792840916310509185
:104080006410609165107091661081E895E00E945F
:104090007928409167105091681060916910709173
:1040A0006A108EE795E00E9479288091C00085FF14
:1040B000FCCF8AE08093C600FE018491EBEDF5E031
:1040C000882349F09091C00095FFFCCF8093C600F3
:1040D00031968491F5CFE0E6F5E08491882341F0B4
:1040E0009091C00095FFFCCF8093C6003196F5CF2C
:1040F0008091C00085FFFCCF8AE08093C600FE015E
:104100008491EBEDF5E0882349F09091C00095FF94
:10411000FCCF8093C60031968491F5CF4091371043
:10412000509138106091391070913A1087E595E000
:10413000F1D740913B1050913C1060913D1070912F
:104140003E1084E595E0E6D740913F105091401035
:10415000609141107091421081E595E0DBD740916C
:1041600043105091441060914510709146108EE4B8
:1041700095E0D0D78091C00085FFFCCF8AE0809386
:10418000C600FE018491EBEDF5E0882349F09091A3
:10419000C00095FFFCCF8093C60031968491F5CF87
:1041A000E9E1F5E08491882341F09091C00095FF0A
:1041B000FCCF8093C6003196F5CF8091C00085FF7B
:1041C000FCCF8AE08093C600FE018491EBEDF5E020
:1041D000882349F09091C00095FFFCCF8093C600E2
:1041E00031968491F5CF40912F105091301060910D
:1041F00031107091321080E195E07BD740912B1007
:1042000050912C1060912D1070912E108DE095E042
:1042100070D78091C00085FFFCCF8AE08093C600F4
:10422000FE018491EBEDF5E0882349F09091C00008
:1042300095FFFCCF8093C60031968491F5CFEAE5D7
:10424000F4E08491882341F09091C00095FFFCCF69
:104250008093C6003196F5CF8091C00085FFFCCFDA
:104260008AE08093C600FE018491EBEDF5E088239F
:1042700049F09091C00095FFFCCF8093C600319625
:104280008491F5CF409133105091341060913510E6
:104290007091361081E594E02CD740911B1050911D
:1042A0001C1060911D1070911E108EE494E021D7B7
:1042B00040916B1050916C1060916D1070916E1068
:1042C0008BE494E027D740912710509128106091FB
:1042D000291070912A1088E494E00BD740912310A4
:1042E00050912410609125107091261085E494E07F
:1042F00000D740911F1050912010609121107091B3
:10430000221082E494E0F5D68091C00085FFFCCFB6
:104310008AE08093C600FE018491EBEDF5E08823EE
:1043200049F09091C00095FFFCCF8093C600319674
:104330008491F5CFE0E3F4E08491882341F09091FB
:10434000C00095FFFCCF8093C6003196F5CF8091D9
:10435000C00085FFFCCF8AE08093C600FE018491F7
:10436000EBEDF5E0882349F09091C00095FFFCCF7C
:104370008093C60031968491F5CF40913E085091CC
:104380003F08609140087091410887E294E0B1D6FF
:10439000409142085091430860914408709145084B
:1043A00084E294E0A6D64091460850914708609177
:1043B00048087091490881E294E09BD68091C00042
:1043C00085FFFCCF8AE08093C600FE018491EBED6F
:1043D000F5E0882349F09091C00095FFFCCF8093D1
:1043E000C60031968491F5CFE3E1F4E0849188230F
:1043F00041F09091C00095FFFCCF8093C6003196AC
:10440000F5CF8091C00085FFFCCF8AE08093C60085
:10441000FE01C491EBEDF5E0CC2349F08091C000A2
:1044200085FFFCCFC093C6003196C491F5CF409173
:10443000620250916302609164027091650289E0AA
:1044400094E057D660915E0270915F0280916002A5
:10445000909161020E94F680AB01BC0186E094E07D
:1044600048D660915A0270915B0280915C029091F3
:104470005D020E940281AB01BC0183E094E039D669
:104480008091C00085FFFCCF8AE08093C600DF9159
:10449000CF910895AF92BF92CF92DF92EF92FF92A9
:1044A0000F931F93CF93DF93CDB7DEB7E0970FB68F
:1044B000F894DEBF0FBECDBF80E1EFE7F2E0DE0192
:1044C000919601900D928A95E1F780E1EFE8F2E094
:1044D000DE01519601900D928A95E1F780E1EFE9B6
:1044E000F2E0DE01119601900D928A95E1F76E01DE
:1044F00081E2C80ED11C8BE4E82E80E1F82E8E01FB
:104500000F5E1F4F6BE570E1AE014F5F5F4F97E3AA
:10451000A92E90E1B92E20E030E0F6018191919131
:10452000A191B1916F01F70181939193A193B193FF
:104530007F01F80181919191A191B1918F01FB01CE
:1045400081939193A193B193BF01FA0181919191CC
:10455000A191B191AF01F50181939193A193B19391
:104560005F012F5F3F4F24303105B9F680E090E0C6
:10457000A8ECB3E48093471090934810A09349109F
:10458000B0934A100E945C5E80E090E8ABE3B5E433
:1045900080932F1090933010A0933110B09332106D
:1045A00080932B1090932C10A0932D10B0932E106D
:1045B0001092331010923410109235101092361061
:1045C00080E29EE4A0E0B0E080936B1090936C10CA
:1045D000A0936D10B0936E1010921B1010921C10CF
:1045E00010921D1010921E1080E090E0A0EAB1E43D
:1045F0008093271090932810A0932910B0932A102D
:104600008DEC9CECACECBEE38093231090932410D3
:10461000A0932510B093261080E090E0A0EAB0E4CB
:1046200080931F1090932010A0932110B09322101C
:1046300010924608109247081092480810924908B4
:1046400010924208109243081092440810924508B4
:1046500010923E0810923F081092400810924108B4
:104660008AEA90E090937D1380937C1388E290E037
:1046700090937B1380937A138AE090E09093791360
:10468000809378132CED30E03093771320937613DA
:1046900000E510E010937513009374139093731357
:1046A000809372138AE999E9A1EBB1E480936202E5
:1046B00090936302A0936402B093650261E77DE387
:1046C0008AE89FE30E94F08060935E0270935F022D
:1046D000809360029093610260E070E084EE92E467
:1046E0000E94FC8060935A0270935B0280935C028C
:1046F00090935D020E944B7880E090E0A0E8BFE3D9
:104700008093560290935702A0935802B093590297
:104710001092250810922608109227081092280857
:104720001092290810935D0800935C08EBEDF5E00A
:104730008491882341F09091C00095FFFCCF809335
:10474000C6003196F5CFE7ECF3E08491882341F081
:104750009091C00095FFFCCF8093C6003196F5CFB5
:104760008091C00085FFFCCF8AE08093C600E09670
:104770000FB6F894DEBF0FBECDBFDF91CF911F9172
:104780000F91FF90EF90DF90CF90BF90AF90089582
:10479000CF93DF93CDB7DEB72C970FB6F894DEBF7B
:1047A0000FBECDBF84E690E09C878B8786E591E3C2
:1047B000A0E3B0E089839A83AB83BC8344E0BE016D
:1047C0006B5F7F4FCE010B967BDA43E050E0BE017A
:1047D0006B5F7F4FCE0101960E94D8C6892B09F0EE
:1047E000DAC040E16BE470E1CE010B9669DA40E19A
:1047F0006BE570E1CE010B9663DA40E167E370E1AF
:10480000CE010B965DDA0E945C5E44E06FE270E1DF
:10481000CE010B9655DA44E06BE270E1CE010B96C7
:104820004FDA44E063E370E1CE010B9649DA44E0ED
:104830006BE170E1CE010B9643DA44E06BE670E188
:10484000CE010B963DDA44E067E270E1CE010B96B3
:1048500037DA44E063E270E1CE010B9631DA44E0EE
:104860006FE170E1CE010B962BDA4CE06EE378E05D
:10487000CE010B9625DA42E06CE773E1CE010B9690
:104880001FDA42E06AE773E1CE010B9619DA42E0E3
:1048900068E773E1CE010B9613DA42E066E773E155
:1048A000CE010B960DDA42E064E773E1CE010B9680
:1048B00007DA42E062E773E1CE010B9601DA44E0E9
:1048C0006AE278E0CE010B96FBD944E062E672E042
:1048D000CE010B96F5D944E06EE572E0CE010B9661
:1048E000EFD944E06AE572E0CE010B96E9D942E0E7
:1048F000BE01675F7F4FCE010B96E2D941E065E2D2
:1049000078E0CE010B96DCD944E066E278E0CE0197
:104910000B96D6D942E06CE578E0CE010B96D0D963
:1049200080915C0890915D088937910514F088E7C3
:1049300090E097FF02C080E090E090935D08809344
:104940005C0844E067E470E1CE010B96B9D90E949F
:104950004B78EBEDF5E08491882341F09091C00015
:1049600095FFFCCF8093C6003196F5CFE9EEF3E0DA
:104970008491882341F09091C00095FFFCCF8093F3
:10498000C6003196F5CF8091C00085FFFCCF8AE04C
:104990008093C60001C07EDDBCDA2C960FB6F89479
:1049A000DEBF0FBECDBFDF91CF9108951F920F9252
:1049B0000FB60F9211240BB60F922F933F934F9384
:1049C0005F936F938F939F93EF93FF936091C600D4
:1049D0002091470630914806C90101968F779927A3
:1049E0004091490650914A068417950741F0F90114
:1049F000E953FA4F60839093480680934706FF91EE
:104A0000EF919F918F916F915F914F913F912F9176
:104A10000F900BBE0F900FBE0F901F9018959A012C
:104A2000AB01211581EE38074105510549F182E0BE
:104A30008093C00060E079E08DE390E00E9433C392
:104A40002150310941095109CA01B90122E030E080
:104A500040E050E00E9433C33093C5002093C4006F
:104A60008091C10080618093C1008091C100886005
:104A70008093C1008091C10080688093C100089537
:104A80001092C00020E130E0E7CF2091490630913C
:104A90004A0680914706909148068217930771F065
:104AA000F901E953FA4F80812F5F3F4F2F7733276A
:104AB00030934A062093490690E008958FEF9FEFC8
:104AC00008958091490690914A06909348068093F4
:104AD000470608954F925F926F927F928F929F92B6
:104AE000AF92BF92CF92DF92EF92FF920F931F93FC
:104AF000CF93DF93CDB7DEB7A0970FB6F894DEBFA4
:104B00000FBECDBF5C014115510561057105E9F48A
:104B100020E030E040E350E060E070E0A0960FB6A7
:104B2000F894DEBF0FBECDBFDF91CF911F910F91E3
:104B3000FF90EF90DF90CF90BF90AF909F908F90BD
:104B40007F906F905F904F905BC08E010F5F1F4F03
:104B5000C12CD12C76014801422E512C612C712C94
:104B60008FEFC81AD80AE80AF80ACB01BA01A301E4
:104B700092010E9411C3CA01F80161938F01A9013A
:104B8000BC01411551056105710551F7F1E0CF1ADE
:104B9000D108E108F108F401EC0DFD1D80818A3097
:104BA00010F440E301C047E3480F552747FD5095F7
:104BB000652F752F20E030E0C50122D081E0C81AB2
:104BC000D108E108F108EFEFCE16DE06EE06FE068C
:104BD00011F7A0960FB6F894DEBF0FBECDBFDF91E0
:104BE000CF911F910F91FF90EF90DF90CF90BF90EA
:104BF000AF909F908F907F906F905F904F900895AF
:104C00002115310539F48091C00085FFFCCF409318
:104C1000C60008952A30310509F41CC05BCFCF933C
:104C2000DF93EC0120E030E04DE050E060E070E028
:104C3000E7DF20E030E04AE050E060E070E0CE01E5
:104C4000DF91CF91DDCF9A01AB01662757FD6095CB
:104C5000762FD6CFCF92DF92EF92FF92CF93DF9352
:104C6000EC016A017B0177FF0FC020E030E04DE2EC
:104C700050E060E070E0C4DFF094E094D094C09421
:104C8000C11CD11CE11CF11C2AE0B701A601CE0118
:104C9000DF91CF91FF90EF90DF90CF901BCF211548
:104CA000310539F48091C00085FFFCCF4093C600E8
:104CB000089510CF9A01462F50E060E070E0EFCFEA
:104CC000CF93DF93EC019A01AB0160E070E0E7DF86
:104CD000CE01DF91CF91A3CF8F929F92AF92BF92DF
:104CE000CF92DF92EF92FF921F93CF93DF93EC016D
:104CF0006A017B01122F20E030E0A901C701B60153
:104D00000E9440BF87FF0CC020E030E04DE250E041
:104D100060E070E0CE0174DFF7FAF094F7F8F094F9
:104D2000B12C60E070E080E09FE3B11641F020E03C
:104D300030E040E251E40E9447BFB394F6CF9B01BC
:104D4000AC01C701B6010E9467BE6B017C010E94E5
:104D5000B4BF4B015C010E94E0BF9B01AC01C701E5
:104D6000B6010E9466BE6B017C012AE0B501A40178
:104D7000CE01B0DE112361F0E2E9F3E081918823F6
:104D800039F09091C00095FFFCCF8093C600F6CF1C
:104D9000112319F120E030E040E251E4C701B601EF
:104DA0000E9415C26B017C010E94AFBF4B01AA2477
:104DB00097FCA094BA2CB501A401CE014BDFC5012C
:104DC000B4010E94E2BF9B01AC01C701B6010E9481
:104DD00066BE6B017C011150DBCFDF91CF911F913B
:104DE000FF90EF90DF90CF90BF90AF909F908F900B
:104DF000089572CFFC016591759185919491089504
:104E0000EF92FF920F931F93CF93DF93EC01CC0FA0
:104E1000DD1FCC0FDD1FCE018E55944FEBDF9E01C1
:104E2000265B374F79018E01025C174FF801208114
:104E30003181428153810E9467BEF7016083718393
:104E400082839383CE018654944FD4DF9E012E5CDF
:104E5000374F7901F80120813181428153810E94CD
:104E600067BEF7016083718382839383CE0182558D
:104E7000944FC0DFCC5EDD4FF8012081318142814B
:104E800053810E9467BE688379838A839B83DF9105
:104E9000CF911F910F91FF90EF9008952F923F9225
:104EA0004F925F926F927F928F929F92AF92BF923A
:104EB000CF92DF92EF92FF920F931F93CF93DF93E6
:104EC00000D01F92CDB7DEB74C01FC01E957F44F7B
:104ED000B490880F991F880F991F9C838B83865BE2
:104EE000974F1C01FC01108211821282138226E569
:104EF00038E042E558E06EE478E08AE498E00E9409
:104F00008A5D8B819C818A56944F74DF6B017C0192
:104F10006B2D772767FD7095872F972F0E94E2BF33
:104F20002B013C018B819C81805F974F5C0120E0CD
:104F300030E040EC5FE3C701B6010E9415C2A30157
:104F400092010E9415C2F50160837183828393836D
:104F50008B819C81865D9D4F9A838983FC01608152
:104F600071818281938160930B0270930C02809314
:104F70000D0290930E0220E030E040E752E40E94E0
:104F800047BF30E2C32E38E0D32E7B018C012CE1E9
:104F900038E048E158E064E178E080E198E00E9480
:104FA0009F540E946576F101108211821282138251
:104FB00026E538E042E558E06EE478E08AE498E0DF
:104FC0000E948A5D8B819C818657944F9C838B8342
:104FD00011DF9058A30192010E9415C2F501608370
:104FE00071838283938320E030E040E752E4609154
:104FF0000B0270910C0280910D0290910E020E94A2
:1050000047BF7B018C012CE138E048E158E064E1C6
:1050100078E080E198E00E949F540E9465768B8141
:105020009C81E8DE9B01AC010E9467BEA301920156
:105030000E9415C2F501608371838283938320E00F
:1050400030E040E05FE3E981FA8160817181828133
:1050500093810E9415C260930B0270930C0280939F
:105060000D0290930E0220E030E040E752E40E94EF
:1050700047BF7B018C012CE138E048E158E064E156
:1050800078E080E198E00E949F540E946576C40118
:10509000B7DEF10180819181A281B381F501808326
:1050A0009183A283B38310920B0210920C02109290
:1050B0000D0210920E020E94A46EF401E15DF74F02
:1050C00081E080830F900F900F900F90DF91CF9130
:1050D0001F910F91FF90EF90DF90CF90BF90AF9016
:1050E0009F908F907F906F905F904F903F902F9008
:1050F0000895FC012491222341F03091C00035FF36
:10510000FCCF2093C6000196F4CF22E030E086EC7D
:1051100095E06FCEFC012491222341F03091C00034
:1051200035FFFCCF2093C6000196F4CF2AE030E093
:1051300086EC95E0B4CDCF93DF931F921F92CDB74D
:10514000DEB780917114909172149E012F5F3F4FD2
:10515000009719F42757344102C0281B390B3A83B2
:10516000298389819A810F900F90DF91CF910895C3
:105170002091650630916606243031050CF06AC036
:10518000409167065091680660E6649F9001659FB4
:10519000300D1124BC01C9018159994F0E94D1C61B
:1051A000E6ECFBE08491882341F09091C00095FFEC
:1051B000FCCF8093C6003196F5CFECE7FBE08491FD
:1051C000882341F09091C00095FFFCCF8093C600EA
:1051D0003196F5CF809167069091680620E6289F6A
:1051E000F001299FF00D1124E159F94F8191882395
:1051F00039F09091C00095FFFCCF8093C600F6CFA8
:10520000EAE7FBE08491882341F09091C00095FF8C
:10521000FCCF8093C6003196F5CF8091C00085FF0A
:10522000FCCF8AE08093C600809167069091680663
:10523000019664E070E00E94FEC29093680680933D
:1052400067068091650690916606019690936606C2
:105250008093650608952091650630916606243096
:1052600031050CF06AC0409167065091680660E60F
:10527000649F9001659F300D1124BC01C9018159C3
:10528000994F0E9441C6E6ECFBE08491882341F0EF
:105290009091C00095FFFCCF8093C6003196F5CF6A
:1052A000EFE6FBE08491882341F09091C00095FFE8
:1052B000FCCF8093C6003196F5CF80916706909120
:1052C000680620E6289FF001299FF00D1124E1597E
:1052D000F94F8191882339F09091C00095FFFCCF60
:1052E0008093C600F6CFEDE6FBE08491882341F081
:1052F0009091C00095FFFCCF8093C6003196F5CF0A
:105300008091C00085FFFCCF8AE08093C600809129
:10531000670690916806019664E070E00E94FEC204
:105320009093680680936706809165069091660663
:10533000019690936606809365060895E7E0F1E094
:105340008081877F80830895809A889A269A2E98F4
:105350000895809A88980895F1DFF6DF40E950EDCE
:1053600063E070E086EC95E05ADBE7E6FBE08491D1
:10537000882341F09091C00095FFFCCF8093C60038
:105380003196F5CF8091C00085FFFCCF8AE08093F5
:10539000C60086EC9BE0FC012491222341F0309171
:1053A000C00035FFFCCF2093C6003196F5CF24B75F
:1053B00020FF14C0EFE5FBE03491332341F040912E
:1053C000C00045FFFCCF3093C6003196F5CF309139
:1053D000C00035FFFCCF3AE03093C60021FF14C077
:1053E000EFE4FBE03491332341F04091C00045FFEE
:1053F000FCCF3093C6003196F5CF3091C00035FF19
:10540000FCCF3AE03093C60022FF14C0EEE3FBE08D
:105410003491332341F04091C00045FFFCCF3093DD
:10542000C6003196F5CF3091C00035FFFCCF3AE091
:105430003093C60023FF14C0EEE2FBE03491332327
:1054400041F04091C00045FFFCCF3093C60031963B
:10545000F5CF3091C00035FFFCCF3AE03093C60065
:1054600025FF14C0EEE1FBE02491222341F03091AE
:10547000C00035FFFCCF2093C6003196F5CF2091B8
:10548000C00025FFFCCF2AE02093C60014BEE7E150
:10549000FBE02491222341F03091C00035FFFCCF86
:1054A0002093C6003196F5CFEAE0FBE02491222359
:1054B00041F03091C00035FFFCCF2093C6003196FB
:1054C000F5CFE4E0FBE02491222341F03091C000CD
:1054D00035FFFCCF2093C6003196F5CF2091C00058
:1054E00025FFFCCF2AE02093C600FC012491E6ECC6
:1054F000FBE0222349F03091C00035FFFCCF209320
:10550000C60031962491F5CFE4EFFAE024912223EE
:1055100041F03091C00035FFFCCF2093C60031969A
:10552000F5CFEFEDFAE02491222341F03091C00055
:1055300035FFFCCF2093C6003196F5CFE3EDFAE0BE
:105540002491222341F03091C00035FFFCCF2093FD
:10555000C6003196F5CFE4EAFAE02491222341F027
:105560003091C00035FFFCCF2093C6003196F5CFB7
:105570002091C00025FFFCCF2AE02093C600E9E976
:10558000FAE02491222341F03091C00035FFFCCF96
:105590002093C6003196F5CFEDE8FAE0249122235E
:1055A00041F03091C00035FFFCCF2093C60031960A
:1055B000F5CF2091C00025FFFCCF2AE02093C60044
:1055C000FC018491E6ECFBE0882349F09091C00057
:1055D00095FFFCCF8093C60031968491F5CFEEE71E
:1055E000FAE08491882341F09091C00095FFFCCFB0
:1055F0008093C6003196F5CF9EDD4AE050E0BC01B5
:1056000086EC95E020DBE7E6FAE08491882341F020
:105610009091C00095FFFCCF8093C6003196F5CFE6
:105620004AE050E060ED74E086EC95E00CDB8091A0
:10563000C00085FFFCCF8AE08093C60010926B0605
:1056400010926C0610926D0610926E06A1D8809191
:1056500025088823B1F08091260890912708A09111
:105660002808B09129088093460890934708A09392
:105670004808B093490860E070E0CB010E94535E97
:105680000AC01092460810924708109248081092DB
:1056900049080E940E7A8091250880932E080E9466
:1056A00030530E94E3750E946A93FFEF23ED80E37D
:1056B000F15020408040E1F700C000000895809143
:1056C0005F069091600660E070E001960C9498C3CC
:1056D00080915F06909160064AE050E060E070E0E3
:1056E00001960C9400C5682F772767FD709520916F
:1056F000690630916A0640E6429FC001439F900DC3
:1057000011248159994F0E94C6C6909360068093D8
:105710005F0621E0892B09F420E0822F08950E9482
:1057200048B860935B0670935C0680935D06909327
:105730005E0608950E9448B860935B0670935C060D
:1057400080935D0690935E06E0916906F0916A068B
:10575000E559F94F8081811114C0E0E9F6E08491A8
:10576000882341F09091C00095FFFCCF8093C60044
:105770003196F5CF8091C00085FFFCCF8AE0809301
:10578000C600089586EC95E09CD9E3E9F6E08491A3
:10579000882341F09091C00095FFFCCF8093C60014
:1057A0003196F5CF4091F4075091F5076091F607D7
:1057B0007091F7074F5F5F4F6F4F7F4F2AE030E0E8
:1057C00086EC95E01DDA8091C00085FFFCCF8AE071
:1057D0008093C600AFCF2F923F924F925F926F920D
:1057E0007F928F929F92AF92BF92CF92DF92EF9271
:1057F000FF920F931F93CF93DF93CDB7DEB76E97D2
:105800000FB6F894DEBF0FBECDBF70E6B72EE4E052
:10581000EE2EF12CFDE2CF2EF9E0DF2EAAE0AA2E2B
:1058200099249394809147069091480620914906C7
:1058300030914A06821B930B8F779927892B09F4A5
:1058400007C2809165069091660604970CF000C22D
:1058500086EC95E01AD98093640620916206309117
:1058600063068A3061F08D3051F08A3321F49091D3
:105870006106992321F02F3531050CF40DC1211556
:10588000310509F427C18091670690916806B89E9A
:105890003001B99E700C1124F301E20FF31FE1599E
:1058A000F94F1082209161062111F1C0109261061A
:1058B000FC01E559F94F108283010159194F6EE43B
:1058C00070E0C8010E94C6C60097F1F1909360068F
:1058D00080935F06801B910B860D971D4AE050E078
:1058E00060E070E08059994F0E9400C56093F8070E
:1058F0007093F9078093FA079093FB074090F407A1
:105900005090F5076090F6077090F7072FEF421A56
:10591000520A620A720A00916706109168066415BD
:1059200075058605970509F4D8C0B09EC001B19EE3
:10593000900D112469E47AE08159994F0E9478C64C
:10594000892B09F0CAC057C16AE270E0C8010E9401
:10595000C6C6892B09F443C0ECECFBE08491882394
:1059600041F09091C00095FFFCCF8093C600319626
:10597000F5CFE3EAF9E08491882341F09091C000EB
:1059800095FFFCCF8093C6003196F5CF4091F40788
:105990005091F5076091F6077091F7072AE030E023
:1059A00086EC95E02DD98091C00085FFFCCF8AE080
:1059B0008093C6001092630610926206AFC2809177
:1059C000F8079091F907A091FA07B091FB0780932F
:1059D000F4079093F507A093F607B093F70780912B
:1059E000670690916806B89E8001B99E100D11243B
:1059F000C8018159994F3C0167E470E00E94C6C616
:105A0000009781F19093600680935F06861997094D
:105A1000800F911F60E070E08059994F0E9498C3F9
:105A20000E94AFBF64307105E8F480914D06882371
:105A3000C9F0F6018491EDE2F9E0882349F09091F4
:105A4000C00095FFFCCF8093C60031968491F5CFBE
:105A50008091C00085FFFCCFA092C60083E299E050
:105A60000E94F89280916706909168060196B701AE
:105A70000E94FEC290936806809367068091650637
:105A80009091660601969093660680936506109243
:105A9000630610926206C6CE8B3311F490926106B3
:105AA000909161069111BECE4091670650916806B3
:105AB000B9016F5F7F4F7093630660936206B49E77
:105AC000F001B59EF00D1124E20FF31FE159F94FDB
:105AD0008083A8CE1092610621C2B09E3001B19E93
